:101E000001C0D7C01F92CDB7DEB711248FE594E093
:101E10009EBF8DBF84B7882361F0982F9A7092304F
:101E200041F081FF02C097EF94BF282E80E0AED032
:101E3000E7C085E08EBD82E08BB988E18AB986E88B
:101E400080BD89E189B98EE0A1D0BD9A86E028E104
:101E50003EEF44E050E23DBD2CBD48BF08B602FE57
:101E6000FDCF98B3952798BBA8955F9902C0815084
:101E700091F701E025E0D22E31E1C32E80D08134EC
:101E800079F47DD0898386D08981823811F481E00C
:101E900005C0813811F488E001C083E06CD068C0CF
:101EA000823411F484E103C0853419F485E07AD0DA
:101EB0005FC0853539F463D0882E61D0982E880CA8
:101EC000991C55C0863521F484E06CD080E0E6CFC3
:101ED000843609F030C053D052D0182F50D0B82ECD
:101EE00080E6E82EF12C105A4AD0F70181937F0149
:101EF0001E13FACF4FD0F5E4BF1201C0FFCF83E02D
:101F0000F40187BFE89507B600FCFDCFF401A0E619
:101F1000B0E08D919D910C0107BFE8951124329698
:101F20001A13F7CFF401D7BEE89507B600FCFDCF32
:101F3000C7BEE8951DC0843769F421D020D0182F82
:101F40001ED028D07401F70185917F0114D0115063
:101F5000D1F70EC0853739F41DD08EE10CD083E95E
:101F60000AD087E09BCF813511F488E00FD012D0E2
:101F700080E101D083CF5D9BFECF8CB908955F9B3C
:101F8000FECF5C9901C0A8958CB1089598E191BDF0
:101F900081BD0895F4DF803219F088E0F7DFFFCFCC
:101FA00084E1E9CFCF93C82FEADFC150E9F7CF91A1
:101FB000F1CFFC010A0167BFE895112407B600FCC8
:101FC000FDCF667029F0452B19F481E187BFE895B4
:021FD000089572
:021FFE000108D8
:0400000300001E00DB
:00000001FF
